:100000000C9487000C94B1000C94B1000C94B100D6
:100010000C94B1000C94B1000C94B1000C94B1009C
:100020000C94B1000C94B1000C94B1000C94230317
:100030000C94B1000C9435080C94B1000C94B100F0
:100040000C94B1000C94B1000C94190E0C94B100F6
:100050000C94B00A0C94E60A0C94B1000C94B10014
:100060000C94B1000C94B1000C94B1000C94B1004C
:100070000C94B1000C94B1000C94B1000C94B1003C
:100080000C9463080C94B1000C94B10000000002C1
:1000900003000A0B0000000005040908000000002E
:1000A0000000000000000000000000000102040841
:1000B0001020408001020408102040800102040842
:1000C0001020408001020408102040800202020239
:1000D00002020202040404040404040403030303EC
:1000E00003030303010101010101010100002000DC
:1000F00023002600290000002200250028002B00F4
:1001000000002100240027002A0027071A0B1124D1
:100110001FBECFEFD0E4DEBFCDBF11E0A0E0B1E065
:10012000E2E9F5E200E00BBF02C007900D92A238B1
:10013000B107D9F723E0A2E8B1E001C01D92A830D1
:10014000B207E1F710E0C7E8D0E004C02197FE0154
:100150000E94F90FC538D107C9F70E940A0E0C9406
:10016000C7120C94000069E171E08DE592E00E94F5
:10017000910B60910702709108024AE050E08DE512
:1001800092E00C94680C009711F0FC01099408951A
:1001900086E00E94A10F21E0892B09F020E0209346
:1001A000990182E00E94A10F21E0892B09F020E053
:1001B0002093980187E00E94A10F21E0892B09F08C
:1001C00020E020939201089580911601882319F070
:1001D00081E0809318010895809194019091950198
:1001E000A0919601B0919701209198012223F9F0F6
:1001F0000097A105B10531F58091930181112DC0C2
:1002000083E090E0A0E0B0E08093940190939501AA
:10021000A0939601B09397019091170181E09827E0
:10022000909317018093930180939A01089500970A
:10023000A105B10539F480919301882371F01092E2
:10024000930108950197A109B109809394019093B6
:100250009501A0939601B09397010895809118019C
:100260008823A1F08AEC93E0A0E0B0E08093120133
:1002700090931301A0931401B093150160911201A2
:10028000709113018FE092E00C943A0984EF91E0B1
:10029000A0E0B0E0EBCF809117018823A1F084ECBF
:1002A00099E0A0E0B0E080930E0190930F01A0933D
:1002B0001001B093110160910E0170910F018CE05B
:1002C00092E00C943A0984EF91E0A0E0B0E0EBCF2B
:1002D00080919001882381F180918C0190918D0112
:1002E000A0918E01B0918F01181619061A061B06EF
:1002F00094F42091910121110EC01092180185569D
:100300009109A109B10980938C0190938D01A0936B
:100310008E01B0938F0180918C0190918D01A091FD
:100320008E01B0918F01B7FF07C01092900181E05C
:100330008093160180931801089580919201909105
:100340009101992389F0882389F080911601811108
:1003500004C0109218011092910180911601811130
:1003600005C01092170102C08111F7CF089581E0F6
:100370008093180110929C0110929B0180931601AA
:100380001092990110929201109291011092900195
:1003900010928C0110928D0110928E0110928F019B
:1003A00010928B01089580919901882321F00E9479
:1003B000B701109218010895EF92FF920F931F93C7
:1003C000CF93DF937C01C1E0D0E010E000E0F701C3
:1003D00084819581C817D90768F4BE01C7010E94BE
:1003E000F70DFC018081082E000C990B08271927B6
:1003F0002196EDCFC801DF91CF911F910F91FF9012
:10040000EF9008950F931F93CF93DF93CDB7DEB78F
:100410002C970FB6F894DEBF0FBECDBF67E271E038
:10042000CE0107960E94EC0C40919D0150919E01D7
:1004300060919F017091A001CE0107960E94C60DA8
:100440006CE2CE0107960E94830D6091180170E066
:10045000CE0107960E94960D6CE2CE0107960E948F
:10046000830D6091170170E0CE0107960E94960DF2
:100470006CE2CE0107960E94830D6091160170E038
:10048000CE0107960E94960D6CE2CE0107960E945F
:10049000830D6091990170E0CE0107960E94960D40
:1004A0006CE2CE0107960E94830D6091920170E08C
:1004B000CE0107960E94960D6CE2CE0107960E942F
:1004C000830D4091120150911301609114017091BC
:1004D0001501CE0107960E94C60D6CE2CE0107966B
:1004E0000E94830D40910E0150910F016091100107
:1004F00070911101CE0107960E94C60DBE01695F81
:100500007F4FCE0101960E944E0DCE0101960E94B2
:10051000DC018C01CE0101960E947A0C6AE2CE01C8
:1005200007960E94830D80919D0190919E01A0915C
:100530009F01B091A0010196A11DB11D80939D0165
:1005400090939E01A0939F01B093A001BE01695FAB
:100550007F4F8DE592E00E94830B40E1B801CE0110
:1005600001960E940B0DBE016F5F7F4F8DE592E0FB
:100570000E94A40BCE0101960E947A0C0E94630E89
:10058000609382017093830180938401909385012D
:10059000CE0107960E947A0C2C960FB6F894DEBF17
:1005A0000FBECDBFDF91CF911F910F910895809124
:1005B0001801882381F161E085E00E94730F61E0FA
:1005C00083E00E94730F61E085E00E94730F8091C9
:1005D0001601882351F161E084E00E94730F61E00D
:1005E00084E00E94730F80911601811129C081E07F
:1005F00080938A01809117018823E9F082E390E0DB
:10060000A0E0B0E08093060190930701A093080159
:10061000B0930901089560E085E00E94730F60E0E7
:1006200083E00E94730F60E0CFCF60E084E00E941F
:10063000730F60E0D5CF84E190E0A0E0B0E0E2CFBE
:1006400010928A0108951F920F920FB60F921124F3
:100650000BB60F928F929F92AF92BF92CF92DF9282
:10066000EF92FF922F933F934F935F936F937F93FC
:100670008F939F93AF93BF93EF93FF93C0908601A7
:10068000D0908701E0908801F09089018FEFC81A1F
:10069000D80AE80AF80AC0928601D0928701E0924F
:1006A0008801F092890180918A01882309F45AC057
:1006B0008090060190900701A0900801B090090178
:1006C000C701B601A50194010E94D70F672B682BC3
:1006D000692B49F461E082E00E94730F61E080E0E1
:1006E0000E94730F24C020910A0130910B014091A8
:1006F0000C0150910D01280D391D4A1D5B1DC701CC
:10070000B6010E94D70F672B682B692B81F460E03C
:1007100082E00E94730F60E080E00E94730F1092ED
:100720008601109287011092880110928901FF9131
:10073000EF91BF91AF919F918F917F916F915F9159
:100740004F913F912F91FF90EF90DF90CF90BF900E
:10075000AF909F908F900F900BBE0F900FBE0F9099
:100760001F90189580911801882309F4B3CF60E099
:1007700082E00E94730F60E0B2CFFF920F931F934D
:10078000CF93DF9370E0FC01E25BFF4FE0812DE44B
:1007900030E02E1B3109621773070CF58A01FC014A
:1007A000E61BF70BE45BFF4F2081FC01E61BF70B18
:1007B000E55BFF4FC081C80FD92FD11DF88018828B
:1007C000820F911D0E940812F80191838083F882A4
:1007D00081E0DF91CF911F910F91FF90089580E00C
:1007E000F8CFCF93DF93CDB7DEB728970FB6F89445
:1007F000DEBF0FBECDBF18861F821E821D821C82E7
:100800001B821A821982AE01495F5F4F60E081EA64
:1008100091E00E94BD03AE014B5F5F4F61E081EA52
:1008200091E00E94BD03AE014D5F5F4F62E081EA3F
:1008300091E00E94BD03AE014F5F5F4F63E081EA2C
:1008400091E00E94BD038F819885019761F481E05A
:100850008093180128960FB6F894DEBF0FBECDBF67
:10086000DF91CF91089580911601882339F06FE2CE
:1008700071E08DE592E00E94B60BECCF4D815E8178
:100880002B813C814115510531F42115310519F4B5
:1008900010921801DFCF81E0452B09F480E08093AE
:1008A000910181E0232B09F480E0809390018981FC
:1008B0009A81092E000CAA0BBB0B80938C0190939C
:1008C0008D01A0938E01B0938F01C4CFCF93DF939E
:1008D00000D0CDB7DEB71A821982AE014F5F5F4FED
:1008E00060E081EA91E00E94BD0389819A8121E064
:1008F000009709F420E020931601892B39F08091AC
:100900001801811103C081E0809318010F900F90AE
:10091000DF91CF9108950F931F93CF93DF93EC0155
:100920008C010A591F4F81E090E0F8019183808388
:100930007797808191810E94C300FE01EC59FF4F9F
:100940001182108277971082C25BDF4F8DE488831B
:10095000F80111821082DF91CF911F910F910895BC
:100960000F931F93CF93082F082E000C110B9801A3
:10097000205331092A30310528F48053CF911F913B
:100980000F910895C82FC8010E943312892B19F0C6
:1009900089ECC73444F0C8010E943712892B29F032
:1009A000C7361CF489EA8C0FE9CF8FEFE7CFCF93DE
:1009B000FC01ED59FF4FC0819C012D5A3F4F80E053
:1009C000C81789F0FB01D90196E0915069F05D915B
:1009D00041915417D1F35D32C1F34D32B1F38F5FC2
:1009E000285F3F4FEDCF8FEFCF910895AF92BF9229
:1009F000CF92DF92EF92FF920F931F93CF93DF93EB
:100A0000EC01162F7C0124E6E20EF11CD701ED91DA
:100A1000FC91E730F10508F05AC1EF5EFA4F0C94F3
:100A2000F90F18053305C705F20503061106170669
:100A3000FC01EA59FF4F11821082643209F09AC01A
:100A4000C759DF4F188281E090E0F70191838083DE
:100A5000DF91CF911F910F91FF90EF90DF90CF909A
:100A6000BF90AF900895862F660F990B0E942612B3
:100A7000892B09F456C06E01FDE4CF0ED11CD601BE
:100A8000EC915E01BEE4AB0EB11CD5018C91E81770
:100A900050F5E53070F481E08E0FD6018C93EC0FA9
:100AA000FD2FF11D1083C759DF4F88811827188348
:100AB000CFCF8E010A591F4F83E090E0F801918358
:100AC0008083C15BDF4F888199810E94C300D70179
:100AD0001D921C92F60110828DE4D5018C93F801D1
:100AE00011821082B5CF8E010A591F4F82E090E02B
:100AF000D8018D939C93FE01E15BFF4F8081918132
:100B00000E94C300F70111821082FE01E35BFF4FD8
:100B10001082C25BDF4F8DE48883D8011D921C9246
:100B200097CF1A32A1F01C3229F5FE01E759FF4F89
:100B30008081182710837C97908131968081815025
:100B40008083C80FD11D988382E090E07ECFFE01A4
:100B5000E659FF4F10827D979081319680818150B8
:100B60008083C80FD11D988383E090E0D7018D93D7
:100B70009C936ECFCE01DF91CF911F910F91FF908B
:100B8000EF90DF90CF90BF90AF900C948B049C01BE
:100B9000235B3F4FF9019081DE01A25BBF4F8C9137
:100BA000981708F0A0CF6A3261F07C966C3281F41D
:100BB00020811227108381508C93C80FD11D9883F8
:100BC00047CFFE01E659FF4F108281508C93C9CF69
:100BD00080818627808381E0890FF9018083C90F96
:100BE000D11D65CF862F0E94B0048F3F19F2C659E0
:100BF000DF4FF0E18F9FC00111249881892B8883FA
:100C000084E090E0B3CF862F0E94B0048F3F09F4B8
:100C1000B1CFC659DF4F9881892B888385E090E05A
:100C200014CF6D3009F0A6CF86E090E09FCF6A30F8
:100C300009F0A0CFFC01E859FF4F80818E010A59CD
:100C40001F4F8823E1F03296908131978081981769
:100C5000B1F084E090E0F801918380837797808100
:100C600091810E94C300D7011D921C92FE01E35B9B
:100C7000FF4F1082C25BDF4F8DE4888330CFFE01CF
:100C8000E45BFF4FC080CC0EDD2ED11CD601BC90A2
:100C90001C92BE01CE010E94D704F601B0828F3FA4
:100CA00069F028E08202F0011124EC0FFD1FE75AE1
:100CB000FF4F0190F081E02D0995D5CFFE01EF5A4D
:100CC000FF4F0190F081E02D3097B1F7CCCF8C0130
:100CD0000A591F4F85E090E00BCFBF92CF92DF9271
:100CE000EF92FF920F931F93CF93DF938C010D59D7
:100CF0001F4FF801B080F1E0FB1580F17A016B0124
:100D0000EC010E94D7048F3F49F528E0B29EC00154
:100D100011248D5A9F4F45E050E0B6018C0F9D1F66
:100D20000E944E12F8019081292F30E0F9013B9684
:100D300083E0EE0FFF1F8A95E1F7EC0FFD1F108295
:100D400043E0220F331F4A95E1F7C20FD31FC75A62
:100D5000DF4FF982E8829F5FF8019083DF91CF91A6
:100D60001F910F91FF90EF90DF90CF90BF9008956B
:100D700026E040E052EC61E070E08DE592E00E94F8
:100D8000580A62E086E00E94370F62E082E00E942B
:100D9000370F62E087E00E94370F61E084E00E9435
:100DA000370F61E085E00E94370F61E082E00E942A
:100DB000370F61E083E00E94370F61E080E00E941E
:100DC000370F61E080E00E94370F2AEC33E044EFF8
:100DD00051E064E070E08FE092E00E94AC0824EC07
:100DE00039E044EF51E065E070E08CE092E00E9471
:100DF000AC0883EB90E09093F1018093F00141EF18
:100E000053E061E671E081EA91E00E946D0646E6FA
:100E100054E067E671E081EA91E00E946D06F89483
:100E20001092B000E1EBF0E010821092B2008AEF75
:100E30008093B3008081846080838081826080831E
:100E4000E0E7F0E0808181608083789408958FE00E
:100E500092E00E9491088CE092E00E94910810922A
:100E6000F1011092F0011092F3011092F201109230
:100E70000402109208021092070281E08093090296
:100E800010920A0210920B021092060210920502B2
:100E90001092EE018DE48093EF0108958DE592E0CC
:100EA0000E947109892B51F08DE592E00E948B0917
:100EB000682F81EA91E00E94F604F0CF08950E9425
:100EC000E4000E944E070E94C8000E9468010E9430
:100ED0009D010E94D3010E94EC000E9402020E9428
:100EE000D7020E942E010E944B0164E670E080E070
:100EF00090E00C94940ECF92DF92EF92FF920F93BA
:100F00001F93CF93DF936B017A01EC01CD5EDD4F30
:100F100028813CE0389F8001399F100D112427FF64
:100F200024C0FB011182108288818F5F88838881B1
:100F30009801280F311D87FD3A95C90120911202B1
:100F4000F6012817190629F024F088818C300CF45A
:100F50003CC080819181049680349C4908F475C01E
:100F6000F60180819181049672C088819801280FD2
:100F7000311D87FD3A95C9012091120228171906E3
:100F800099F294F28881A801480F511D87FD5A9566
:100F9000FA01EE0FFF1FE40FF51FEB5EFD4F80819E
:100FA00086FFC2CF8881F801E80FF11D87FDFA9511
:100FB000CF01EE0FFF1FE80FF91FEB5EFD4F8081A1
:100FC00060E08F730E94730FAFCF80819181288181
:100FD000A801420F511D27FD5A959A01FA01EE0F03
:100FE000FF1FE20FF31FEB5EFD4F21813281820F65
:100FF000931FF7019183808388819801280F311D09
:1010000087FD3A95F901EE0FFF1FE20FF31FEB5E2C
:10101000FD4F808186FF20C08881080F111D87FD4C
:101020001A95F801EE0FFF1FE00FF11FEB5EFD4F69
:10103000808161E08F73DF91CF911F910F91FF90BD
:10104000EF90DF90CF900C94730F80E49CE9F70150
:10105000918380838FEF8883DF91CF911F910F91D0
:10106000FF90EF90DF90CF9008951F920F920FB6F0
:101070000F9211240BB60F922F933F934F935F93D0
:101080006F937F938F939F93AF93BF93EF93FF9350
:1010900048E850E064E870E081E090E00E947B075F
:1010A000FF91EF91BF91AF919F918F917F916F9140
:1010B0005F914F913F912F910F900BBE0F900FBEFC
:1010C0000F901F9018951F920F920FB60F92112438
:1010D0000BB60F922F933F934F935F936F937F9332
:1010E0008F939F93AF93BF93EF93FF9348E950E0A3
:1010F00064E970E090E080E00E947B07FF91EF914F
:10110000BF91AF919F918F917F916F915F914F911F
:101110003F912F910F900BBE0F900FBE0F901F901D
:101120001895FC0190911202983198F481E0890F92
:10113000809312029083892F90E0FC01EE0FFF1F35
:10114000E80FF91FEB5EFD4F88EB9BE092838183F4
:1011500008958FEF80830895DF92EF92FF920F93AF
:101160001F93CF93DF93EC01D62E7A0189018881FA
:10117000883108F067C061E08D2D0E94370F8881AB
:10118000282F30E0F901EE0FFF1FE20FF31FEB5E97
:10119000FD4F9D2D9F736081607C692B608320E2F1
:1011A00032E02E193F0937FF02C02D5F3F4F3595C2
:1011B000279535952795298320E639E0201B310BAB
:1011C00037FF02C02D5F3F4F359527953595279501
:1011D0002A832CE0622F0E94CB0F829FB001112442
:1011E00030E020E0AB01420F531FFA01EE0FFF1F6A
:1011F000E40FF51FEB5EFD4F908196FD16C02F5F4B
:101200003F4F2C30310571F7813029F51092800065
:1012100082E0809381001092850010928400B19A40
:1012200080916F00826080936F00E8818E2F90E044
:10123000FC01EE0FFF1FE80FF91FEB5EFD4F8081F1
:10124000806480838881DF91CF911F910F91FF90FF
:10125000EF90DF9008958111E8CF1092900082E026
:1012600080939100109295001092940088BB809317
:101270007100DBCFDC01EC91E83190F511968C9197
:10128000119728E830E0281B310987FD3395220F9C
:10129000331F220F331F6217730784F012968C914D
:1012A00028E532E0281B310987FD3395220F331FD3
:1012B000220F331F621773070CF49B012250310970
:1012C000220F331F4FB7F8948E2F90E0FC01EE0FE2
:1012D000FF1FE80FF91FEB5EFD4F328321834FBFE5
:1012E0000895FC01918D228D892F90E0805C9F4FA5
:1012F000821B91098F7399270895FC01918D828D2E
:10130000981731F0828DE80FF11D858D90E00895DA
:101310008FEF9FEF0895FC01918D828D981761F0FA
:10132000A28DAE0FBF2FB11D5D968C91928D9F5FE8
:101330009F73928F90E008958FEF9FEF0895FC01C7
:10134000538D448D252F30E0842F90E0821B930B2A
:10135000541710F0CF9608950197089580E19BE00F
:10136000892B49F080E090E0892B29F00E94100B36
:1013700081110E94000080E090E0892B49F080E01C
:1013800090E0892B29F00E94000081110C9400004C
:101390000895FC01A48DA80FB92FB11DA35ABF4F0A
:1013A0002C91848D90E001968F739927848FA68964
:1013B000B7892C93A089B1898C91837080648C93B8
:1013C000938D848D981306C00288F389E02D808167
:1013D0008F7D80830895CF93DF93EC01888D8823E0
:1013E000B9F0AA89BB89E889F9898C9185FD03C088
:1013F000808186FD0DC00FB607FCF7CF8C9185FF6D
:10140000F2CF808185FFEDCFCE010E94C909E9CFDF
:10141000DF91CF910895EF92FF920F931F93CF9397
:10142000DF93EC0181E0888F9B8D8C8D98131AC01F
:10143000E889F989808185FF15C09FB7F894EE8906
:10144000FF896083E889F989808183708064808363
:101450009FBF81E090E0DF91CF911F910F91FF90AE
:10146000EF900895F62E0B8D10E00F5F1F4F0F7356
:101470001127E02E8C8D8E110CC00FB607FCFACF11
:10148000E889F989808185FFF5CFCE010E94C909DD
:10149000F1CFEB8DEC0FFD2FF11DE35AFF4FF082E2
:1014A0009FB7F8940B8FEA89FB8980818062CFCF48
:1014B000CF92DF92EF92FF921F93CF93DF93EC01D5
:1014C0006A017B01122FE889F98982E08083C114C7
:1014D00081EED806E104F104A1F060E079E08DE34B
:1014E00090E0A70196010E94D70F215031094109D0
:1014F00051095695479537952795211580E138076D
:1015000098F0E889F989108260E874E88EE190E04B
:10151000A70196010E94D70F2150310941095109B5
:101520005695479537952795EC85FD853083EE8553
:10153000FF852083188EEC89FD891083EA89FB8959
:10154000808188698083EA89FB8980818F7D80839F
:10155000DF91CF911F91FF90EF90DF90CF90089592
:101560001F920F920FB60F9211240BB60F922F936A
:101570008F939F93EF93FF93E0916D02F0916E0232
:101580008081E0917302F091740282FD1DC0908110
:10159000809176028F5F8F7320917702821741F0DE
:1015A000E0917602F0E0E35AFD4F958F809376024A
:1015B000FF91EF919F918F912F910F900BBE0F9004
:1015C0000FBE0F901F9018958081F2CF1F920F923F
:1015D0000FB60F9211240BB60F922F933F934F9398
:1015E0005F936F937F938F939F93AF93BF93EF938B
:1015F000FF938DE592E00E94C909FF91EF91BF91A1
:10160000AF919F918F917F916F915F914F913F919A
:101610002F910F900BBE0F900FBE0F901F9018953B
:101620008DE592E00E94710921E0892B09F420E008
:10163000822F0895EDE5F2E01382128288EE93E0A6
:10164000A0E0B0E084839583A683B78381E791E02F
:101650009183808385EC90E09587848784EC90E08B
:101660009787868780EC90E0918B808B81EC90E06F
:10167000938B828B82EC90E0958B848B86EC90E050
:10168000978B868B118E128E138E148E0895AF92C7
:10169000BF92CF92DF92EF92FF920F931F93CF935F
:1016A000DF936C017B018B01040F151FEB015E01C1
:1016B000AE18BF08C017D10759F06991D601ED9156
:1016C000FC910190F081E02DC6010995892B79F7F5
:1016D000C501DF91CF911F910F91FF90EF90DF90A7
:1016E000CF90BF90AF900895FB0101900020E9F7E3
:1016F0003197AF01461B570BDC01ED91FC91028045
:10170000F381E02D0994DB0114964D915C911597BE
:101710006D917C91DC01ED91FC910280F381E02DD3
:1017200009946115710511F00C94740B90E080E040
:101730000895DC01ED91FC910190F081E02D099478
:101740006FE771E00C94740B0F931F93CF93DF93AB
:10175000EC010E94830B8C01CE010E94A00B800F34
:10176000911FDF91CF911F910F9108950F931F93B8
:10177000CF93DF938C01D0E0C0E06115710519F0C3
:101780000E94740BEC01C8010E94A00B8C0F9D1FDE
:10179000DF91CF911F910F9108958F929F92AF92F9
:1017A000BF92EF92FF920F931F93CF93DF93CDB72A
:1017B000DEB7A1970FB6F894DEBF0FBECDBF7C0198
:1017C000FA01CB0119A2223008F42AE08E010F5D44
:1017D0001F4F822E912CB12CA12CBF01A501940189
:1017E0000E94D70FF901CA016A300CF5605DD8017B
:1017F0006E938D01232B242B252B79F790E080E02D
:10180000109721F0BD01C7010E94740BA1960FB67D
:10181000F894DEBF0FBECDBFDF91CF911F910F9126
:10182000FF90EF90BF90AF909F908F900895695C6C
:10183000DECFCF92DF92EF92FF920F931F93CF9361
:10184000DF932115310581F4DC01ED91FC910190CC
:10185000F081E02D642FDF91CF911F910F91FF90C8
:10186000EF90DF90CF9009942A30310501F52AE0FE
:1018700077FF1DC06A017B01EC016DE20E94990BAC
:101880008C0144275527BA014C195D096E097F095F
:101890002AE0CE010E94CD0B800F911FDF91CF91E6
:1018A0001F910F91FF90EF90DF90CF900895DF91FF
:1018B000CF911F910F91FF90EF90DF90CF900C94FC
:1018C000CD0B9A01AB01770F660B770B0C94190CBB
:1018D0000F931F93CF93DF93EC010E94610C8C0157
:1018E000CE010E94A00B800F911FDF91CF911F911D
:1018F0000F910895FC0180819181009711F00C9463
:101900009E100895CF93DF93EC0188819981009711
:1019100011F00E949E10198218821D821C821B8267
:101920001A82DF91CF9108950F931F93CF93DF9386
:10193000EC018B016F5F7F4F888199810E94271195
:10194000009751F0998388831B830A8381E0DF919C
:10195000CF911F910F91089580E0F9CFCF93DF933E
:10196000EC0188819981892B49F08A819B818617B6
:10197000970720F081E0DF91CF910895CE010E947A
:10198000940C8823C1F38C819D81892B99F7E88180
:10199000F9811082EFCFEF92FF920F931F93CF93B5
:1019A000DF93EC017B018A01BA010E94AE0C811128
:1019B0000BC0CE010E94820CCE01DF91CF911F910E
:1019C0000F91FF90EF9008951D830C83B7018881DC
:1019D00099810E944712F0CFFC011182108213827C
:1019E0001282158214826115710551F0FB0101907C
:1019F0000020E9F73197AF01461B570B0C94CB0C35
:101A00000895FB0101900020E9F73197AF01461BD3
:101A1000570B0C94CB0C0F931F93CF93DF93CDB741
:101A2000DEB762970FB6F894DEBF0FBECDBF8C0154
:101A3000CB01F80111821082138212821582148266
:101A400050E0BE016F5F7F4F0E945D12BE016F5F6D
:101A50007F4FC8010E94010D62960FB6F894DEBF59
:101A60000FBECDBFDF91CF911F910F910895CF93FE
:101A7000DF93EC01FB018617970749F060817181C4
:101A80006115710541F0448155810E94CB0CCE0156
:101A9000DF91CF9108950E94820CF9CFFC01118251
:101AA000108213821282158214820C94370DEF92E9
:101AB000FF920F931F93CF93DF936115710541F44C
:101AC00080E0DF91CF911F910F91FF90EF900895EB
:101AD00041155105B1F07B01EC010C811D81040F12
:101AE000151FB8010E94AE0C882351F3288139815B
:101AF0008C819D81B701820F931F0E9447121D8325
:101B00000C8381E0DECFCF93DF9300D0CDB7DEB77B
:101B100069831A8241E050E0BE016F5F7F4F0E94EF
:101B2000570D0F900F90DF91CF910895EF92FF9294
:101B30000F931F93CF93DF93CDB7DEB728970FB6E0
:101B4000F894DEBF0FBECDBF7C01CB014AE08E0111
:101B50000F5F1F4FB8010E946812F801019000202A
:101B6000E9F73197AF01401B510BB801C7010E9443
:101B7000570D28960FB6F894DEBF0FBECDBFDF918C
:101B8000CF911F910F91FF90EF900895EF92FF92E8
:101B90000F931F93CF93DF93CDB7DEB72D970FB67B
:101BA000F894DEBF0FBECDBF7C01CB01BA012AE0A5
:101BB0008E010F5F1F4FA8010E947B12F801019058
:101BC0000020E9F73197AF01401B510BB801C70165
:101BD0000E94570D2D960FB6F894DEBF0FBECDBFF5
:101BE000DF91CF911F910F91FF90EF900895FC012D
:101BF000248135816217730720F4808191810097D9
:101C000029F41092FA028AEF92E00895860F971F46
:101C1000089508950E94CD0E0E94090E0E94B806F4
:101C2000CEEAD9E00E945F072097E1F30E94AE0957
:101C3000F9CF1F920F920FB60F9211242F933F935B
:101C40008F939F93AF93BF93809100039091010373
:101C5000A0910203B09103033091FF0223E0230F10
:101C60002D3768F126E8230F0296A11DB11D2093A0
:101C7000FF028093000390930103A0930203B093AB
:101C800003038091FB029091FC02A091FD02B091B0
:101C9000FE020196A11DB11D8093FB029093FC02F0
:101CA000A093FD02B093FE02BF91AF919F918F91DF
:101CB0003F912F910F900FBE0F901F901895019696
:101CC000A11DB11DD4CF2FB7F8946091000370917E
:101CD000010380910203909103032FBF08953FB742
:101CE000F8948091FB029091FC02A091FD02B091CA
:101CF000FE0226B5A89B05C02F3F19F00196A11D35
:101D0000B11D3FBFBA2FA92F982F8827BC01CD0145
:101D1000620F711D811D911D42E0660F771F881FA4
:101D2000991F4A95D1F708958F929F92AF92BF92D3
:101D3000CF92DF92EF92FF926B017C010E946F0EB7
:101D40004B015C01C114D104E104F104E9F00E94EB
:101D5000CA0F0E946F0E681979098A099B09683EAB
:101D600073408105910570F321E0C21AD108E108A2
:101D7000F10888EE880E83E0981EA11CB11CC114E6
:101D8000D104E104F10429F7FF90EF90DF90CF90A8
:101D9000BF90AF909F908F900895789484B58360A2
:101DA00084BD85B5836085BDEEE6F0E0808181600D
:101DB0008083E1E8F0E082E080838081816080833D
:101DC000E0E8F0E0808181608083E1EBF0E08081F9
:101DD00084608083E0EBF0E0808181608083E1E9D2
:101DE000F0E0808183608083E0E9F0E080818160C1
:101DF000808387E880937A001092C1000895825012
:101E00008A3088F5E82FF0E0E85FF04F0C94F90F86
:101E1000300F340F120F180F330F330F1C0F220F18
:101E2000260F2C0F809180008F778093800008957B
:101E3000809180008F7DF9CF8091B0008F77809363
:101E4000B00008958091B0008F7DF9CF809190000F
:101E50008F77809390000895809190008F7DF9CFC7
:101E600084B58F7784BD089584B58F7DFBCFCF93E4
:101E7000DF9390E0FC01E455FF4F249184539F4F82
:101E8000FC0184918823C9F090E0880F991FFC0120
:101E9000E050FF4FA591B491FC01EA50FF4FC5916E
:101EA000D49161110DC09FB7F8948C912095822335
:101EB0008C938881282328839FBFDF91CF91089539
:101EC000623051F49FB7F8943C91822F8095832320
:101ED0008C93E8812E2BEFCF8FB7F894EC912E2BBB
:101EE0002C938FBFEACF1F93CF93DF93282F30E03F
:101EF000F901E457FF4F8491F901E455FF4FD49164
:101F0000F901E453FF4FC491CC23A9F0162F81119E
:101F10000E94FF0EEC2FF0E0EE0FFF1FEA50FF4F84
:101F2000A591B4918FB7F894EC91111108C0D09598
:101F3000DE23DC938FBFDF91CF911F910895DE2BBD
:101F4000F8CFCF93DF93282F30E0F901E457FF4F0C
:101F50008491F901E455FF4FD491F901E453FF4F07
:101F6000C491CC23A1F081110E94FF0EEC2FF0E070
:101F7000EE0FFF1FE451FF4FA591B491EC91ED23BB
:101F800081E090E009F480E0DF91CF91089580E056
:101F900090E0FACF0895991B79E004C0991F961735
:101FA00008F0961B881F7A95C9F780950895A1E2DD
:101FB0001A2EAA1BBB1BFD010DC0AA1FBB1FEE1FC3
:101FC000FF1FA217B307E407F50720F0A21BB30B0E
:101FD000E40BF50B661F771F881F991F1A9469F78A
:101FE00060957095809590959B01AC01BD01CF01E6
:101FF0000895EE0FFF1F0024001C0BBE0790F69102
:10200000E02D09940F931F93CF93DF9382309105B6
:1020100010F482E090E0E0910603F091070330E0D5
:1020200020E0B0E0A0E0309799F42115310509F4E3
:102030004AC0281B390B24303105D8F58A819B8191
:102040006115710589F1FB0193838283FE0111C043
:10205000408151810281138148175907E0F04817E8
:10206000590799F4109761F012960C9312971396F2
:102070001C933296CF01DF91CF911F910F9108955C
:102080000093060310930703F4CF2115310551F097
:102090004217530738F0A901DB019A01BD01DF01A6
:1020A000F801C1CFEF01F9CF9093070380930603A6
:1020B000CDCFFE01E20FF31F81939193225031099E
:1020C00039832883D7CF2091040330910503232B34
:1020D00041F42091020130910301309305032093D4
:1020E000040320910001309101012115310541F4D3
:1020F0002DB73EB74091040150910501241B350BCB
:10210000E0910403F0910503E217F307A0F42E1BFE
:102110003F0B2817390778F0AC014E5F5F4F24174B
:10212000350748F04E0F5F1F50930503409304039B
:10213000819391939FCFF0E0E0E09CCFCF93DF932A
:102140000097E9F0FC01329713821282A0910603F6
:10215000B0910703ED0130E020E01097A1F4208159
:102160003181820F931F20910403309105032817BA
:10217000390709F061C0F0930503E0930403DF9190
:10218000CF910895EA01CE17DF07E8F54A815B8118
:102190009E0141155105B1F7E901FB83EA8349919D
:1021A0005991C40FD51FEC17FD0761F4808191810F
:1021B0000296840F951FE901998388838281938118
:1021C0009B838A83F0E0E0E012968D919C911397B7
:1021D0000097B9F52D913C911197CD010296820F90
:1021E000931F20910403309105032817390739F60E
:1021F000309751F51092070310920603B093050330
:10220000A0930403BCCFD383C28340815181840F48
:10221000951FC817D90761F44E5F5F4F8881998178
:10222000480F591F518340838A819B819383828306
:102230002115310509F0B0CFF0930703E0930603B1
:102240009ECFFD01DC01C0CF13821282D7CF4F9207
:102250005F926F927F928F929F92AF92BF92CF9236
:10226000DF92EF92FF920F931F93CF93DF938C0136
:10227000009799F4CB01DF91CF911F910F91FF90BF
:10228000EF90DF90CF90BF90AF909F908F907F9016
:102290006F905F904F900C940210FC01E60FF71FB7
:1022A0009C0122503109E217F30708F4AEC0D901AE
:1022B000CD91DC911197C617D70720F1C530D10514
:1022C00078F0CE0104978617970750F0C61BD70BFE
:1022D0002297C193D1936D937C93CF010E949E105E
:1022E000C801DF91CF911F910F91FF90EF90DF9088
:1022F000CF90BF90AF909F908F907F906F905F90A6
:102300004F9008955B01AC1ABD0A4C018C0E9D1EC6
:10231000A0910603B0910703512C412CF12CE12C24
:10232000109731F580910403909105038815990564
:1023300009F05CC04616570608F058C080910001AD
:1023400090910101009741F48DB79EB7409104012F
:1023500050910501841B950BE817F90708F055C04B
:10236000F0930503E0930403F90171836083B8CF10
:102370008D919C91119712966C90129713967C9068
:102380001397A815B90559F56C0142E0C40ED11C8C
:10239000CA14DB0420F1AC014A195B09DA01129678
:1023A000159780F06282738251834083D9016D93C7
:1023B0007C93E114F10471F0D7011396FC93EE9332
:1023C00012978ECF22968C0F9D1FF90191838083E7
:1023D000F301EFCFF0930703E093060381CF481694
:1023E000590608F42C017D01D3019ACFCB010E943C
:1023F00002107C01009749F0AE01B8010E943E1224
:10240000C8010E949E1087016BCF10E000E068CFEA
:10241000FC0188279927E89421912032E9F329309B
:1024200010F02E30C8F32B3241F02D3239F468947D
:1024300004C00E947312820F911D219120532A30F3
:10244000C0F31EF4909581959F4F089591110C94BF
:10245000301280538A5018F0865C0C94361208951E
:1024600099278827089585FD0C9430128062911178
:102470000C94301281568A51D8F70895FB01DC0183
:1024800002C001900D9241505040D8F70895FB01D1
:10249000DC0101900D920020E1F70895FB01DC01C1
:1024A0004150504048F001900D920020C9F701C002
:1024B0001D9241505040E0F708954532510520F4F7
:1024C000423010F00C946812FB011082CB01089589
:1024D000BB274A3031F4992322F4BDE290958195CF
:1024E0009F4F0C949E127AE0979F902D879F802D8E
:1024F000910D11240895BB27FA01A62F62177105CB
:1025000081059105330B30FB66F0AA27660F771F14
:10251000881F991FAA1FA21710F0A21B639538509D
:10252000A9F7A05DAA3308F0A95DA19336F7B11110
:10253000B1931082CA010C94B712BB27FB01552737
:10254000AA27880F991FAA1FA41710F0A41B839510
:102550005051B9F7A05DAA3308F0A95DA193009787
:1025600079F7B111B1931192CB010C94B712DC0140
:10257000FC01672F71917723E1F7329704C07C91BA
:102580006D9370836291AE17BF07C8F30895F894F6
:02259000FFCF7B
:10259200000008038000E80300000A000000F401C4
:1025A2000000F401000001010145525228706172DD
:1025B200736572293A200024504C5354532C004521
:1025C20052523A20556E61626C6520746F20756EAE
:1025D2006C6F636B206265636175736520626C6FFB
:1025E200636B696E67206973206163746976652E17
:1025F20000504C4C434B00504C424C4B00000000EE
:10260200000B0A470B9F09EB0971098B097D090D24
:022612000A00BC
:00000001FF
